:100000000200C880108D998D3080003099028002E6
:1000100080F9C2992280EE8058780179007A007BBD
:10002000237D0D7C00120089758780E4F521F5227F
:10003000E52224F3E5216480347F500280028002AF
:10004000802C74232522F987E07598887423252253
:10005000F987051200030522E52270020521E52239
:1000600024F3E5216480347F5002800280D480FE36
:100070002280A6898288838B00EC4D6036E4E0F60E
:1000800008A31DBDFFF31C80F0B800118B00EC4DE0
:100090006021E7F609081DBDFFF41C80F189828804
:1000A000838B00EC4D600CE493F608A31DBDFFF3B9
:1000B0001C80F022E4F5D075813178207A11F608A1
:0B00C000DAFC1200170200000200B47E
:0D0100004D41544241204D4F4359484F425C
:00000001FF
