:10000000020058898288838B00EC4D6036E4E0F66C
:1000100008A31DBDFFF31C80F0B800118B00EC4D50
:100020006021E7F609081DBDFFF41C80F189828874
:10003000838B00EC4D600CE493F608A31DBDFFF329
:100040001C80F022E4F5D075812E78207A0EF60817
:0B005000DAFC12010C02000002004468
:1001000031323334353637383941304302021478CE
:100110000179007A007B207D0C7C00120019E4F547
:100120002CF52D75803875A00175A000758080753F
:10013000A00175A000C2902094028002800A79225A
:10014000878075A00375A0022095028002800A793D
:1001500021878075A00375A0022096028002800A84
:100160007920878075A00375A002D290C291209457
:10017000028002800A7925878075A00375A002207D
:1001800095028002800A7924878075A00375A002F9
:100190002096028002800A7923878075A00375A0CB
:1001A00002D291C2922094028002800A792887802C
:1001B00075A00375A0022095028002800A79278726
:1001C0008075A00375A0022096028002800A79261D
:1001D000878075A00375A002D292C29320940280FA
:1001E00002800A792B878075A00375A002209502F2
:1001F0008002800A792A878075A00375A002209664
:10020000028002800975800175A00175A000D2935B
:070210000201352202010F7B
:00000001FF
